:040000000EEF39F0D6
:1070DE00A3EC38F01200000E9EBA010E12009EAA0A
:1070EE00FED7AE50120055C001F0026A120054C015
:1070FE0001F0026A1200070E19EC3AF012000600B7
:10710E00010203040500FFFF016EACA2FED701C011
:10711E00ADFF1200AEEC38F0C70EBE6E070E19ECC6
:10712E003AF012004C0E5824D96E000E5920DA6E29
:10713E00DF5019EC3AF01200AC94B886AC980A0EF7
:10714E00AF6EAB8EAB88AC8A948E949C12009494E6
:10715E00C70ECB6E9494C70ECB6E010EBE6E000E94
:10716E00CA6E0C0EBD6E000ECC6ECA84120040505C
:10717E0041104210D8B406D0000E401A000E411A2B
:10718E00800E421A40C040F041C041F042C042F071
:10719E00120001500302F3CF05F0F4CF06F00150B8
:1071AE000402F350062602500302F350062605C0D1
:1071BE0001F006C002F0120002AE0DD001C003F0C5
:1071CE0002C004F0031E041E034A042A03C001F089
:1071DE0004C002F0120001C001F002C002F0120061
:1071EE00800ED06E0F0EC16E0F0EB46E000E896E35
:1071FE00000E926EC50ED56E000E8A6E000E936E48
:10720E00000E8C6E000E956E000E8D6E12000C0E22
:10721E00F66E710EF76E000EF86E00EE4CF010EE7C
:10722E000AF00900F5CFEEFFE550E150FAE100EE6D
:10723E0056F0070EEE6AE806FDE1000EF86E00014C
:10724E00C8EF3EF0000E126E10AE06D00F6C101E80
:10725E00D8B0102A010E126E0FC001F010C002F04D
:10726E00036A8E0E046E12C005F0DFEC3AF001C018
:10727E000FF002C010F003C011F0120059BE0CD076
:10728E00595003E15804D8A007D0FF0E5824586E69
:10729E00FF0E5920596E04D0000E596E060E586E10
:1072AE004C0E5824D96E000E5920DA6EDF5019ECB0
:1072BE003AF0120059BE06D059500BE1060E585C3A
:1072CE00D8B007D0010E5824586E000E5920596EB2
:1072DE0004D0000E596E000E586E4C0E5824D96E06
:1072EE00000E5920DA6EDF5019EC3AF0120082ECE3
:1072FE0038F0000E036E010E026E03BE06D0F50EC0
:10730E00025C010E0358D8B012D0000E056E010EAD
:10731E00046E05BE06D0910E045C010E0558D8B061
:10732E0003D0044A052AF5D7024A032AE6D799EC78
:10733E0038F01200000E376E8E0E366E31AE11D052
:10734E00311E301E2F1E2E6C000E2F2230223122A7
:10735E00010E376E06D0D890313230322F322E32A7
:10736E00362A000E2E14326E000E2F14336E000EBF
:10737E003014346EFF0E3114356E3250331034101B
:10738E003510D8A4E8D72EC001F02FC002F030C0BF
:10739E0003F036C004F037C005F0DFEC3AF001C060
:1073AE002EF002C02FF003C030F012000150021078
:1073BE000310D8A409D004C0D9FF05C0DAFF000E0F
:1073CE00DE6E000EDD6E120003507F0B066E076A36
:1073DE00D8900636073604C0D9FF05C0DAFF06C0BE
:1073EE00DEFF07C0DDFF02AE03D0066A062A01D01B
:1073FE00066A065004C0D9FF05C0DAFFDE12000E81
:10740E00DD1204C0D9FF05C0DAFF820EDE26FF0EA4
:10741E00DD2203800382038403860388038A039C90
:10742E00029E1200016E20D08982899089941200EA
:10743E008992898089941200899289908984120098
:10744E0089928980898412008982899089841200A8
:10745E0089828980899412008982898089841200A8
:10746E0089928990899412000150000AD8B4E4D709
:10747E00010AD8B4D9D7030AD8B4DAD7010AD8B4D6
:10748E00DFD7070AD8B4E0D7010AD8B4E1D7030A88
:10749E00D8B4E2D7010AD8A41200E2D7000E0C6EBF
:1074AE000AAE06D0096C0A1ED8B00A2A010E0C6E5E
:1074BE0008AE06D0076C081ED8B0082A010E0C1AAA
:1074CE00000E0E6E000E0D6E09500A10D8B41CD0B0
:1074DE00010E0B6E04D0D89009360A360B2A0AAE6E
:1074EE00FAD7D8900D360E360950075C0A50085858
:1074FE00D8A005D00950075E0A50085A0D80D890C2
:10750E000A3209320B2EEDD70C50D8B404D00D6CC4
:10751E000E1ED8B00E2A0DC007F00EC008F01200D5
:10752E0003AE16D001C007F002C008F003C009F088
:10753E00071E081E091E072A000E08220922000E29
:10754E000724016E000E0820026E800E0920036EC5
:10755E0006AE16D004C007F005C008F006C009F04C
:10756E00071E081E091E072A000E08220922000EF9
:10757E000724046E000E0820056E800E0920066E8C
:10758E00000E011A000E021A800E031A000E041AC3
:10759E00000E051A800E061A0450015C05500258A2
:1075AE0006500358D8B002D0D8901200D8801200DE
:1075BE000450D8B405D0015002100310D8A40CD03A
:1075CE00000E016E000E026E000E036E1200042AF3
:1075DE00D890033202320132000E0114066E000EF4
:1075EE000214076EFE0E0314086E065007100810E4
:1075FE00D8B40CD0ECD7042A010E0126000E0222BC
:10760E00000E0322D890033202320132000E011412
:10761E00066E000E0214076EFF0E0314086E06505F
:10762E0007100810D8B406D0E6D70406D890013655
:10763E000236033602BE03D0020E0460F6D704A053
:10764E00029ED8900432045003120550D8A4038E23
:10765E0001C001F002C002F003C003F012005CBED4
:10766E0006D05C500AE1030E5B5CD8B006D0010E6A
:10767E005B245B6E000E5C205C6E000E0A6E030EC9
:10768E00096E5BC001F05CC002F0000E046EC20E0B
:10769E00036ED0EC38F001C007F002C008F055ECD4
:1076AE003AF007C00FF008C010F029EC39F00FC007
:1076BE0038F010C039F011C03AF081EC3CF038C00F
:1076CE0040F039C041F03AC042F0BEEC38F040C054
:1076DE0043F041C044F042C045F0000E166E470E16
:1076EE00176E430E186E43C013F044C014F045C01D
:1076FE0015F0FDEC3CF013C01FF014C020F015C0C7
:10770E0021F007EC3CF01FC048F020C049F049BE04
:10771E0005D048C046F049C047F004D0000E476E71
:10772E00000E466E46C0BEFF12005CBE0BD05C5013
:10773E0003E15B04D8A006D0FF0E5B245B6EFF0E48
:10774E005C205C6E000E0A6E030E096E5BC001F0CB
:10775E005CC002F0000E046EC20E036ED0EC38F068
:10776E0001C007F002C008F055EC3AF007C00FF068
:10777E0008C010F029EC39F00FC038F010C039F005
:10778E0011C03AF081EC3CF038C040F039C041F005
:10779E003AC042F0BEEC38F040C043F041C044F075
:1077AE0042C045F0000E166E470E176E430E186E51
:1077BE0043C013F044C014F045C015F0FDEC3CF08E
:1077CE0013C01FF014C020F015C021F007EC3CF0E0
:1077DE001FC048F020C049F049BE06D0495009E10B
:1077EE00C80E485CD8B005D048C046F049C047F036
:1077FE0004D0000E476EC70E466E46C0BEFF120086
:10780E0021C023F0246A256A2034233601E3248024
:10781E0023502D6E2D50D8A409D0000E1F6E000ED1
:10782E00206E000E216E000E226E1200170E236EB9
:10783E001FC024F020C025F021C026F02328276E7B
:10784E0004D0D890263225322432272EFAD724504F
:10785E00286E208EFF0E1F16FF0E2016000E21160C
:10786E001F50296E20502A6E21502B6E2C6A8E0EC0
:10787E002D5E2DAE16D02D50800A8F0FD8B009D0A8
:10788E00000E1F6E000E206E000E216E000E226E78
:10789E001200D8902C322B322A3229322D3EF9D7B3
:1078AE0015D0170E2D640FD0000E1F6E000E206E19
:1078BE00000E216E000E226E1200D89029362A3646
:1078CE002B362C362D062D50D8A4F7D72850D8B4E9
:1078DE0008D02C1E2B1E2A1E296C000E2A222B22AB
:1078EE002C2229C01FF02AC020F02BC021F02CC062
:1078FE0022F0120038C001F039C002F03AC003F095
:10790E003E0E046E000E056EDDEC39F03FAE1DD05E
:10791E00000E016E000E026E000E036E38C004F0F3
:10792E0039C005F03AC006F097EC3AF0D8A006D070
:10793E00000E386E000E396E000E05D0000E386E39
:10794E00800E396E3F0E3A6E12003F5004E1150E56
:10795E003E5CD8A007D038C038F039C039F03AC0F4
:10796E003AF0120038C01FF039C020F03AC021F0B2
:10797E0007EC3CF01FC02EF020C02FF021C030F0DD
:10798E0022C031F0A1EC39F02EC03BF02FC03CF0FC
:10799E0030C03DF03BC001F03CC002F03DC003F0F2
:1079AE0038C004F039C005F03AC006F097EC3AF052
:1079BE00D8B015D03BC013F03CC014F03DC015F04C
:1079CE00000E166E800E176E3F0E186EFDEC3CF01C
:1079DE0013C038F014C039F015C03AF012003BC095
:1079EE0038F03CC039F03DC03AF0120015C019F025
:1079FE001A6A1B6A1434193601E31A8019501E6E66
:107A0E0018C019F01A6A1B6A1734193601E31A8066
:107A1E0019501D6E1E50D8B40BD01D501E5CD8B020
:107A2E000ED01E5000081D24196E180E196407D0B2
:107A3E0016C013F017C014F018C015F012001D5028
:107A4E00D8B40BD01E501D5CD8B00ED01D500008FF
:107A5E001E24196E180E196407D013C013F014C02B
:107A6E0014F015C015F01200060E1C6E15BE1C8EFD
:107A7E0018BE1C8C148EFF0E1316FF0E1416000E5D
:107A8E001516178EFF0E1616FF0E1716000E181669
:107A9E001D501E5CD8B01BD0D8901636173618362F
:107AAE001D061E501D18D8B40DD01C061CC019F092
:107ABE00070E1916D8B406D0EFD7D8901532143257
:107ACE0013321E2A1D501E18D8B41FD0F6D71E50C2
:107ADE001D5CD8B01AD0D8901336143615361E0643
:107AEE001E501D18D8B40DD01C061CC019F0070E60
:107AFE001916D8B406D0EFD7D890183217321632DE
:107B0E001D2A1D501E18D8A4F7D71CAE0CD0FF0E80
:107B1E00131AFF0E141AFF0E151A010E1326000E5D
:107B2E001422000E15221CAC0CD0FF0E161AFF0EDE
:107B3E00171AFF0E181A010E1626000E1722000E27
:107B4E001822000E1C6E13501626145017221550B4
:107B5E00182218AE0ED0FF0E161AFF0E171AFF0EB1
:107B6E00181A010E1626000E1722000E1822010EEC
:107B7E001C6E16C001F017C002F018C003F01EC034
:107B8E0004F01CC005F0DFEC3AF001C013F002C0A7
:107B9E0014F003C015F0120072EC38F00009D8B4DE
:107BAE00EBD076EC38F05A6ED7D001C0D9FF02C0B8
:107BBE00DAFF5AC0DFFF76EC38F0076E086A03C0B2
:107BCE00D9FF04C0DAFF07C0DEFF08C0DDFF76EC88
:107BDE0038F0076E086A05C0D9FF06C0DAFF07C085
:107BEE00DEFF08C0DDFF000E026E010E016E1200F8
:107BFE0001C0D9FF02C0DAFFFE0EDF6E76EC38F060
:107C0E00076E086A03C0D9FF04C0DAFF07C0DEFFA3
:107C1E0008C0DDFF76EC38F0076E086A05C0D9FFA4
:107C2E0006C0DAFF07C0DEFF08C0DDFF000E026EE1
:107C3E00010E016E120001C0D9FF02C0DAFFFF0E65
:107C4E00DF6E03C0D9FF04C0DAFFFF0EDE6E000E3A
:107C5E00DD6E05C0D9FF06C0DAFFFF0EDE6E000E28
:107C6E00DD6E000E026E010E016E120001C0D9FF14
:107C7E0002C0DAFFFA0EDF6E76EC38F0076E086A95
:107C8E0003C0D9FF04C0DAFF07C0DEFF08C0DDFF66
:107C9E0005C0D9FF06C0DAFFFF0EDE6E000EDD6EE8
:107CAE0003C0D9FF04C0DAFF010EDBBE07D0010E00
:107CBE00DB500DE1F10EDE5CD8B009D003C0D9FF68
:107CCE0004C0DAFFDECF09F0DDCF0AF003D0000EDC
:107CDE000A6E096809C055F0000E026E010E016EA3
:107CEE00120001C0D9FF02C0DAFFFB0EDF6E76EC88
:107CFE0038F0076E086A03C0D9FF04C0DAFF07C068
:107D0E00DEFF08C0DDFF05C0D9FF06C0DAFFFF0E9B
:107D1E00DE6E000EDD6E03C0D9FF04C0DAFF010E69
:107D2E00DBBE07D0010EDB500DE1F10EDE5CD8B0EC
:107D3E0009D003C0D9FF04C0DAFFDECF0BF0DDCFD0
:107D4E000CF003D0000E0C6E0B680BC054F0000E3E
:107D5E00026E010E016E12005A50FA0AD8B486D77E
:107D6E00010AD8B4BED7070AD8B41FD7020AD8B4AE
:107D7E003FD7010AD8B45FD7000E026E000E016E17
:107D8E001200000E00016A6F000E616F6069000E36
:107D9E006C6F6B69000E636F000E626F000E656F85
:107DAE00000E646F000E696F000E686F000E736F29
:107DBE00000E726F000E716F000E756F000E746FF5
:107DCE00000E706F000E6F6F000E6E6F010E6D6FF6
:107DDE00F7EC38F091EC38F06FEC38F000016A51A6
:107DEE00D8A46DD0710E016E000E026E740E036E6D
:107DFE00000E046E6F0E056E000E066ED3EC3DF097
:107E0E0001500210D8B4EAD7FC0E00017119D8B493
:107E1E0031D0E4D7722903E17329D8B40AD07205A0
:107E2E007311D8B402D0010E01D0000E726F736BB5
:107E3E0030D0FF0E7225726FFF0E19D072057311BE
:107E4E00D8B411D0722903E17329D8B403D066696E
:107E5E00676904D0000E676F000E666F66C072F021
:107E6E0067C073F016D0010E7225726F000E73216B
:107E7E00736F0FD074C04AF075C04BF04B50000AB0
:107E8E00D8A407D04A50010AD8B4C4D7030AD8B42C
:107E9E00D5D772C001F073C002F0E3EC38F0020ED9
:107EAE0001180210D8A49AD7010E00016A6F99EC3E
:107EBE0038F0000E0001736F000E726F8FD769BF1E
:107ECE000FD0695104E1FB0E685DD8A009D0000EF9
:107EDE00696F000E686F000E6A6F82EC38F07ED705
:107EEE00710E016E000E026E740E036E000E046EA5
:107EFE006F0E056E000E066ED3EC3DF001500210B3
:107F0E00D8B46CD77EEC38F001C06BF002C06CF0C8
:107F1E0000016B296C11D8B428D06BC04AF06CC02C
:107F2E004BF04A1E4B1E4A4A4B2A62514A24016E9E
:107F3E0063514B20026EE3EC38F001C064F002C0D6
:107F4E0065F0000165BF06D0655107E10F0E645D57
:107F5E00D8B003D0684B692B08D06BC062F06CC0F0
:107F6E0063F0000E696F000E686F7AEC38F001C096
:107F7E0060F002C061F0000160518BEC38F0FC0E35
:107F8E0000017119D8A42AD7030E74197511D8A43B
:107F9E000CD06D516E11D8A402D0010E01D0000E7E
:107FAE006D6F6E6B7EEC39F019D700016D056E1199
:107FBE00D8A40CD074057511D8B49CEC3BF0020E0D
:107FCE00000174197511D8B436EC3BF000016D51F7
:107FDE006E11D8A403D774057511D8B461EC39F0BD
:107FEE00020E000174197511D8A4F8D645EC39F0BB
:027FFE00F5D6B6
:020000040020DA
:08000000FFFFFFFFFFFFFFFF00
:020000040030CA
:0E000000000C191EFF8181FF0FC00FE00F40A2
:00000001FF
